{
  "_format": "hh-sol-artifact-1",
  "contractName": "phoneLink",
  "sourceName": "contracts/phoneLink.sol",
  "abi": [
    {
      "inputs": [],
      "name": "ECDSAInvalidSignature",
      "type": "error"
    },
    {
      "inputs": [
        {
          "internalType": "uint256",
          "name": "length",
          "type": "uint256"
        }
      ],
      "name": "ECDSAInvalidSignatureLength",
      "type": "error"
    },
    {
      "inputs": [
        {
          "internalType": "bytes32",
          "name": "s",
          "type": "bytes32"
        }
      ],
      "name": "ECDSAInvalidSignatureS",
      "type": "error"
    },
    {
      "inputs": [
        {
          "internalType": "address",
          "name": "spender",
          "type": "address"
        },
        {
          "internalType": "uint256",
          "name": "allowance",
          "type": "uint256"
        },
        {
          "internalType": "uint256",
          "name": "needed",
          "type": "uint256"
        }
      ],
      "name": "ERC20InsufficientAllowance",
      "type": "error"
    },
    {
      "inputs": [
        {
          "internalType": "address",
          "name": "sender",
          "type": "address"
        },
        {
          "internalType": "uint256",
          "name": "balance",
          "type": "uint256"
        },
        {
          "internalType": "uint256",
          "name": "needed",
          "type": "uint256"
        }
      ],
      "name": "ERC20InsufficientBalance",
      "type": "error"
    },
    {
      "inputs": [
        {
          "internalType": "address",
          "name": "approver",
          "type": "address"
        }
      ],
      "name": "ERC20InvalidApprover",
      "type": "error"
    },
    {
      "inputs": [
        {
          "internalType": "address",
          "name": "receiver",
          "type": "address"
        }
      ],
      "name": "ERC20InvalidReceiver",
      "type": "error"
    },
    {
      "inputs": [
        {
          "internalType": "address",
          "name": "sender",
          "type": "address"
        }
      ],
      "name": "ERC20InvalidSender",
      "type": "error"
    },
    {
      "inputs": [
        {
          "internalType": "address",
          "name": "spender",
          "type": "address"
        }
      ],
      "name": "ERC20InvalidSpender",
      "type": "error"
    },
    {
      "inputs": [],
      "name": "InvalidInitialization",
      "type": "error"
    },
    {
      "inputs": [],
      "name": "NotInitializing",
      "type": "error"
    },
    {
      "inputs": [
        {
          "internalType": "address",
          "name": "owner",
          "type": "address"
        }
      ],
      "name": "OwnableInvalidOwner",
      "type": "error"
    },
    {
      "inputs": [
        {
          "internalType": "address",
          "name": "account",
          "type": "address"
        }
      ],
      "name": "OwnableUnauthorizedAccount",
      "type": "error"
    },
    {
      "inputs": [],
      "name": "ReentrancyGuardReentrantCall",
      "type": "error"
    },
    {
      "anonymous": false,
      "inputs": [
        {
          "indexed": true,
          "internalType": "address",
          "name": "owner",
          "type": "address"
        },
        {
          "indexed": true,
          "internalType": "address",
          "name": "spender",
          "type": "address"
        },
        {
          "indexed": false,
          "internalType": "uint256",
          "name": "value",
          "type": "uint256"
        }
      ],
      "name": "Approval",
      "type": "event"
    },
    {
      "anonymous": false,
      "inputs": [
        {
          "indexed": true,
          "internalType": "string",
          "name": "name",
          "type": "string"
        },
        {
          "indexed": true,
          "internalType": "string",
          "name": "identifier",
          "type": "string"
        },
        {
          "indexed": true,
          "internalType": "string",
          "name": "typeOfIdentifier",
          "type": "string"
        },
        {
          "indexed": false,
          "internalType": "address",
          "name": "connectedWalletAddress",
          "type": "address"
        },
        {
          "indexed": false,
          "internalType": "bool",
          "name": "isPrimaryWallet",
          "type": "bool"
        }
      ],
      "name": "DetailsCreated",
      "type": "event"
    },
    {
      "anonymous": false,
      "inputs": [
        {
          "indexed": false,
          "internalType": "uint64",
          "name": "version",
          "type": "uint64"
        }
      ],
      "name": "Initialized",
      "type": "event"
    },
    {
      "anonymous": false,
      "inputs": [
        {
          "indexed": true,
          "internalType": "address",
          "name": "previousOwner",
          "type": "address"
        },
        {
          "indexed": true,
          "internalType": "address",
          "name": "newOwner",
          "type": "address"
        }
      ],
      "name": "OwnershipTransferred",
      "type": "event"
    },
    {
      "anonymous": false,
      "inputs": [
        {
          "indexed": true,
          "internalType": "address",
          "name": "from",
          "type": "address"
        },
        {
          "indexed": true,
          "internalType": "address",
          "name": "to",
          "type": "address"
        },
        {
          "indexed": false,
          "internalType": "uint256",
          "name": "value",
          "type": "uint256"
        }
      ],
      "name": "Transfer",
      "type": "event"
    },
    {
      "inputs": [],
      "name": "_itemIds",
      "outputs": [
        {
          "internalType": "uint256",
          "name": "",
          "type": "uint256"
        }
      ],
      "stateMutability": "view",
      "type": "function"
    },
    {
      "inputs": [
        {
          "internalType": "address",
          "name": "owner",
          "type": "address"
        },
        {
          "internalType": "address",
          "name": "spender",
          "type": "address"
        }
      ],
      "name": "allowance",
      "outputs": [
        {
          "internalType": "uint256",
          "name": "",
          "type": "uint256"
        }
      ],
      "stateMutability": "view",
      "type": "function"
    },
    {
      "inputs": [
        {
          "internalType": "address",
          "name": "spender",
          "type": "address"
        },
        {
          "internalType": "uint256",
          "name": "value",
          "type": "uint256"
        }
      ],
      "name": "approve",
      "outputs": [
        {
          "internalType": "bool",
          "name": "",
          "type": "bool"
        }
      ],
      "stateMutability": "nonpayable",
      "type": "function"
    },
    {
      "inputs": [
        {
          "internalType": "address",
          "name": "account",
          "type": "address"
        }
      ],
      "name": "balanceOf",
      "outputs": [
        {
          "internalType": "uint256",
          "name": "",
          "type": "uint256"
        }
      ],
      "stateMutability": "view",
      "type": "function"
    },
    {
      "inputs": [
        {
          "internalType": "string",
          "name": "name",
          "type": "string"
        }
      ],
      "name": "checkUniqueUCI",
      "outputs": [
        {
          "internalType": "bool",
          "name": "",
          "type": "bool"
        }
      ],
      "stateMutability": "view",
      "type": "function"
    },
    {
      "inputs": [],
      "name": "decimals",
      "outputs": [
        {
          "internalType": "uint8",
          "name": "",
          "type": "uint8"
        }
      ],
      "stateMutability": "view",
      "type": "function"
    },
    {
      "inputs": [
        {
          "internalType": "string",
          "name": "name",
          "type": "string"
        },
        {
          "internalType": "string",
          "name": "identifier",
          "type": "string"
        },
        {
          "internalType": "string",
          "name": "typeOfIdentifier",
          "type": "string"
        },
        {
          "internalType": "string",
          "name": "oldIdentifier",
          "type": "string"
        },
        {
          "internalType": "address",
          "name": "sender",
          "type": "address"
        }
      ],
      "name": "editProfile",
      "outputs": [],
      "stateMutability": "nonpayable",
      "type": "function"
    },
    {
      "inputs": [
        {
          "internalType": "string",
          "name": "name",
          "type": "string"
        },
        {
          "internalType": "string",
          "name": "identifier",
          "type": "string"
        },
        {
          "internalType": "string",
          "name": "typeOfIdentifier",
          "type": "string"
        },
        {
          "internalType": "address",
          "name": "sender",
          "type": "address"
        }
      ],
      "name": "enterDetails",
      "outputs": [],
      "stateMutability": "nonpayable",
      "type": "function"
    },
    {
      "inputs": [
        {
          "internalType": "string",
          "name": "userIdentifier",
          "type": "string"
        }
      ],
      "name": "fetchAllWalletAddress",
      "outputs": [
        {
          "components": [
            {
              "internalType": "string",
              "name": "name",
              "type": "string"
            },
            {
              "internalType": "string",
              "name": "identifier",
              "type": "string"
            },
            {
              "internalType": "string",
              "name": "typeOfIdentifier",
              "type": "string"
            },
            {
              "internalType": "address",
              "name": "connectedWalletAddress",
              "type": "address"
            },
            {
              "internalType": "bool",
              "name": "isPrimaryWallet",
              "type": "bool"
            }
          ],
          "internalType": "struct phoneLink.Details[]",
          "name": "",
          "type": "tuple[]"
        }
      ],
      "stateMutability": "view",
      "type": "function"
    },
    {
      "inputs": [
        {
          "internalType": "string",
          "name": "userIdentifier",
          "type": "string"
        }
      ],
      "name": "fetchPrimaryWalletAddress",
      "outputs": [
        {
          "internalType": "address",
          "name": "",
          "type": "address"
        }
      ],
      "stateMutability": "view",
      "type": "function"
    },
    {
      "inputs": [
        {
          "internalType": "string",
          "name": "name",
          "type": "string"
        }
      ],
      "name": "fetchWalletAddressUCI",
      "outputs": [
        {
          "internalType": "address",
          "name": "",
          "type": "address"
        }
      ],
      "stateMutability": "view",
      "type": "function"
    },
    {
      "inputs": [
        {
          "internalType": "uint256",
          "name": "coinAmount",
          "type": "uint256"
        },
        {
          "internalType": "address payable",
          "name": "receiver",
          "type": "address"
        }
      ],
      "name": "getGLL",
      "outputs": [],
      "stateMutability": "payable",
      "type": "function"
    },
    {
      "inputs": [],
      "name": "getMarketOwner",
      "outputs": [
        {
          "internalType": "address payable",
          "name": "",
          "type": "address"
        }
      ],
      "stateMutability": "view",
      "type": "function"
    },
    {
      "inputs": [],
      "name": "getPhoneToDetails",
      "outputs": [
        {
          "components": [
            {
              "internalType": "string",
              "name": "name",
              "type": "string"
            },
            {
              "internalType": "string",
              "name": "identifier",
              "type": "string"
            },
            {
              "internalType": "string",
              "name": "typeOfIdentifier",
              "type": "string"
            },
            {
              "internalType": "address",
              "name": "connectedWalletAddress",
              "type": "address"
            },
            {
              "internalType": "bool",
              "name": "isPrimaryWallet",
              "type": "bool"
            }
          ],
          "internalType": "struct phoneLink.Details[]",
          "name": "",
          "type": "tuple[]"
        }
      ],
      "stateMutability": "view",
      "type": "function"
    },
    {
      "inputs": [
        {
          "internalType": "address",
          "name": "walletAddress",
          "type": "address"
        }
      ],
      "name": "getWalletDetails",
      "outputs": [
        {
          "components": [
            {
              "internalType": "string",
              "name": "name",
              "type": "string"
            },
            {
              "internalType": "string",
              "name": "identifier",
              "type": "string"
            },
            {
              "internalType": "string",
              "name": "typeOfIdentifier",
              "type": "string"
            },
            {
              "internalType": "address",
              "name": "connectedWalletAddress",
              "type": "address"
            },
            {
              "internalType": "bool",
              "name": "isPrimaryWallet",
              "type": "bool"
            }
          ],
          "internalType": "struct phoneLink.Details[]",
          "name": "",
          "type": "tuple[]"
        }
      ],
      "stateMutability": "view",
      "type": "function"
    },
    {
      "inputs": [
        {
          "internalType": "address",
          "name": "gll",
          "type": "address"
        }
      ],
      "name": "initialize",
      "outputs": [],
      "stateMutability": "nonpayable",
      "type": "function"
    },
    {
      "inputs": [
        {
          "internalType": "address",
          "name": "wallet",
          "type": "address"
        },
        {
          "internalType": "string",
          "name": "identifier",
          "type": "string"
        }
      ],
      "name": "makePrimary",
      "outputs": [],
      "stateMutability": "nonpayable",
      "type": "function"
    },
    {
      "inputs": [],
      "name": "marketowner",
      "outputs": [
        {
          "internalType": "address payable",
          "name": "",
          "type": "address"
        }
      ],
      "stateMutability": "view",
      "type": "function"
    },
    {
      "inputs": [],
      "name": "myWallets",
      "outputs": [
        {
          "components": [
            {
              "internalType": "string",
              "name": "name",
              "type": "string"
            },
            {
              "internalType": "string",
              "name": "identifier",
              "type": "string"
            },
            {
              "internalType": "string",
              "name": "typeOfIdentifier",
              "type": "string"
            },
            {
              "internalType": "address",
              "name": "connectedWalletAddress",
              "type": "address"
            },
            {
              "internalType": "bool",
              "name": "isPrimaryWallet",
              "type": "bool"
            }
          ],
          "internalType": "struct phoneLink.Details[]",
          "name": "",
          "type": "tuple[]"
        }
      ],
      "stateMutability": "view",
      "type": "function"
    },
    {
      "inputs": [],
      "name": "name",
      "outputs": [
        {
          "internalType": "string",
          "name": "",
          "type": "string"
        }
      ],
      "stateMutability": "view",
      "type": "function"
    },
    {
      "inputs": [],
      "name": "owner",
      "outputs": [
        {
          "internalType": "address",
          "name": "",
          "type": "address"
        }
      ],
      "stateMutability": "view",
      "type": "function"
    },
    {
      "inputs": [
        {
          "internalType": "uint256",
          "name": "",
          "type": "uint256"
        }
      ],
      "name": "phoneToDetails",
      "outputs": [
        {
          "internalType": "string",
          "name": "name",
          "type": "string"
        },
        {
          "internalType": "string",
          "name": "identifier",
          "type": "string"
        },
        {
          "internalType": "string",
          "name": "typeOfIdentifier",
          "type": "string"
        },
        {
          "internalType": "address",
          "name": "connectedWalletAddress",
          "type": "address"
        },
        {
          "internalType": "bool",
          "name": "isPrimaryWallet",
          "type": "bool"
        }
      ],
      "stateMutability": "view",
      "type": "function"
    },
    {
      "inputs": [
        {
          "internalType": "string",
          "name": "",
          "type": "string"
        }
      ],
      "name": "phoneToDetailsUPI",
      "outputs": [
        {
          "internalType": "string",
          "name": "name",
          "type": "string"
        },
        {
          "internalType": "string",
          "name": "identifier",
          "type": "string"
        },
        {
          "internalType": "string",
          "name": "typeOfIdentifier",
          "type": "string"
        },
        {
          "internalType": "address",
          "name": "connectedWalletAddress",
          "type": "address"
        },
        {
          "internalType": "bool",
          "name": "isPrimaryWallet",
          "type": "bool"
        }
      ],
      "stateMutability": "view",
      "type": "function"
    },
    {
      "inputs": [],
      "name": "platformFee",
      "outputs": [
        {
          "internalType": "uint256",
          "name": "",
          "type": "uint256"
        }
      ],
      "stateMutability": "view",
      "type": "function"
    },
    {
      "inputs": [],
      "name": "renounceOwnership",
      "outputs": [],
      "stateMutability": "nonpayable",
      "type": "function"
    },
    {
      "inputs": [
        {
          "internalType": "uint256",
          "name": "coinAmount",
          "type": "uint256"
        },
        {
          "internalType": "address",
          "name": "token",
          "type": "address"
        },
        {
          "internalType": "address payable",
          "name": "receiver",
          "type": "address"
        },
        {
          "internalType": "address",
          "name": "sender",
          "type": "address"
        },
        {
          "internalType": "bytes",
          "name": "signature",
          "type": "bytes"
        }
      ],
      "name": "sendMoney",
      "outputs": [
        {
          "internalType": "bool",
          "name": "",
          "type": "bool"
        }
      ],
      "stateMutability": "nonpayable",
      "type": "function"
    },
    {
      "inputs": [
        {
          "internalType": "address payable",
          "name": "receiver",
          "type": "address"
        }
      ],
      "name": "sendNative",
      "outputs": [],
      "stateMutability": "payable",
      "type": "function"
    },
    {
      "inputs": [
        {
          "internalType": "address payable",
          "name": "addr",
          "type": "address"
        }
      ],
      "name": "setMarketOwner",
      "outputs": [],
      "stateMutability": "nonpayable",
      "type": "function"
    },
    {
      "inputs": [
        {
          "internalType": "uint256",
          "name": "fee",
          "type": "uint256"
        }
      ],
      "name": "setPlatformFee",
      "outputs": [],
      "stateMutability": "nonpayable",
      "type": "function"
    },
    {
      "inputs": [],
      "name": "symbol",
      "outputs": [
        {
          "internalType": "string",
          "name": "",
          "type": "string"
        }
      ],
      "stateMutability": "view",
      "type": "function"
    },
    {
      "inputs": [],
      "name": "totalSupply",
      "outputs": [
        {
          "internalType": "uint256",
          "name": "",
          "type": "uint256"
        }
      ],
      "stateMutability": "view",
      "type": "function"
    },
    {
      "inputs": [
        {
          "internalType": "address",
          "name": "to",
          "type": "address"
        },
        {
          "internalType": "uint256",
          "name": "value",
          "type": "uint256"
        }
      ],
      "name": "transfer",
      "outputs": [
        {
          "internalType": "bool",
          "name": "",
          "type": "bool"
        }
      ],
      "stateMutability": "nonpayable",
      "type": "function"
    },
    {
      "inputs": [
        {
          "internalType": "address",
          "name": "from",
          "type": "address"
        },
        {
          "internalType": "address",
          "name": "to",
          "type": "address"
        },
        {
          "internalType": "uint256",
          "name": "value",
          "type": "uint256"
        }
      ],
      "name": "transferFrom",
      "outputs": [
        {
          "internalType": "bool",
          "name": "",
          "type": "bool"
        }
      ],
      "stateMutability": "nonpayable",
      "type": "function"
    },
    {
      "inputs": [
        {
          "internalType": "address",
          "name": "newOwner",
          "type": "address"
        }
      ],
      "name": "transferOwnership",
      "outputs": [],
      "stateMutability": "nonpayable",
      "type": "function"
    },
    {
      "inputs": [
        {
          "internalType": "string",
          "name": "identifier",
          "type": "string"
        }
      ],
      "name": "uniqueEntry",
      "outputs": [
        {
          "internalType": "bool",
          "name": "",
          "type": "bool"
        }
      ],
      "stateMutability": "view",
      "type": "function"
    }
  ],
  "bytecode": "0x6080604052348015600f57600080fd5b506154578061001f6000396000f3fe6080604052600436106102045760003560e01c80635e385b9211610118578063b9598c5e116100a0578063db461e1a1161006f578063db461e1a1461078d578063dd62ed3e146107ca578063e13d23e514610807578063f24d3af214610844578063f2fde38b1461088557610204565b8063b9598c5e146106f4578063c34d9d7c1461071d578063c4d66de814610739578063d263be481461076257610204565b8063715018a6116100e7578063715018a61461060d5780638cae45d2146106245780638da5cb5b1461066157806395d89b411461068c578063a9059cbb146106b757610204565b80635e385b921461053f5780636cdaa4211461056a5780636e9976651461059357806370a08231146105d057610204565b80631888d7121161019b578063313ce5671161016a578063313ce5671461045257806334a7f1931461047d578063451e9cf0146104a857806352d95491146104d35780635a12d0f81461051457610204565b80631888d712146103a557806323b872dd146103c157806326232a2e146103fe5780632a41ffd91461042957610204565b80630f1d5ec7116101d75780630f1d5ec7146102d757806312e8e2c31461031457806315ccb6801461033d57806318160ddd1461037a57610204565b8063048743541461020957806306fdde0314610246578063095ea7b3146102715780630c60b372146102ae575b600080fd5b34801561021557600080fd5b50610230600480360381019061022b9190614034565b6108ae565b60405161023d91906140be565b60405180910390f35b34801561025257600080fd5b5061025b6108f9565b6040516102689190614158565b60405180910390f35b34801561027d57600080fd5b50610298600480360381019061029391906141dc565b61099a565b6040516102a59190614237565b60405180910390f35b3480156102ba57600080fd5b506102d560048036038101906102d09190614252565b6109bd565b005b3480156102e357600080fd5b506102fe60048036038101906102f9919061438d565b610be5565b60405161030b9190614237565b60405180910390f35b34801561032057600080fd5b5061033b60048036038101906103369190614424565b610e14565b005b34801561034957600080fd5b50610364600480360381019061035f9190614034565b610e36565b6040516103719190614237565b60405180910390f35b34801561038657600080fd5b5061038f610f5e565b60405161039c9190614460565b60405180910390f35b6103bf60048036038101906103ba919061447b565b610f76565b005b3480156103cd57600080fd5b506103e860048036038101906103e391906144a8565b611068565b6040516103f59190614237565b60405180910390f35b34801561040a57600080fd5b50610413611097565b6040516104209190614460565b60405180910390f35b34801561043557600080fd5b50610450600480360381019061044b91906144fb565b61109d565b005b34801561045e57600080fd5b506104676114cd565b60405161047491906145d2565b60405180910390f35b34801561048957600080fd5b506104926114d6565b60405161049f9190614460565b60405180910390f35b3480156104b457600080fd5b506104bd6114dc565b6040516104ca91906145fc565b60405180910390f35b3480156104df57600080fd5b506104fa60048036038101906104f59190614424565b611505565b60405161050b959493929190614617565b60405180910390f35b34801561052057600080fd5b50610529611700565b604051610536919061482d565b60405180910390f35b34801561054b57600080fd5b50610554611a16565b60405161056191906145fc565b60405180910390f35b34801561057657600080fd5b50610591600480360381019061058c919061447b565b611a3a565b005b34801561059f57600080fd5b506105ba60048036038101906105b59190614034565b611a85565b6040516105c7919061482d565b60405180910390f35b3480156105dc57600080fd5b506105f760048036038101906105f2919061484f565b611eaa565b6040516106049190614460565b60405180910390f35b34801561061957600080fd5b50610622611f01565b005b34801561063057600080fd5b5061064b6004803603810190610646919061484f565b611f15565b604051610658919061482d565b60405180910390f35b34801561066d57600080fd5b50610676612295565b60405161068391906140be565b60405180910390f35b34801561069857600080fd5b506106a16122cd565b6040516106ae9190614158565b60405180910390f35b3480156106c357600080fd5b506106de60048036038101906106d991906141dc565b61236e565b6040516106eb9190614237565b60405180910390f35b34801561070057600080fd5b5061071b6004803603810190610716919061487c565b612391565b005b61073760048036038101906107329190614967565b6125b9565b005b34801561074557600080fd5b50610760600480360381019061075b919061484f565b612676565b005b34801561076e57600080fd5b506107776128be565b604051610784919061482d565b60405180910390f35b34801561079957600080fd5b506107b460048036038101906107af9190614034565b612ceb565b6040516107c191906140be565b60405180910390f35b3480156107d657600080fd5b506107f160048036038101906107ec91906149a7565b612e15565b6040516107fe9190614460565b60405180910390f35b34801561081357600080fd5b5061082e60048036038101906108299190614034565b612eaa565b60405161083b9190614237565b60405180910390f35b34801561085057600080fd5b5061086b60048036038101906108669190614034565b612f30565b60405161087c959493929190614617565b60405180910390f35b34801561089157600080fd5b506108ac60048036038101906108a7919061484f565b613141565b005b60006004826040516108c09190614a23565b908152602001604051809103902060030160009054906101000a900473ffffffffffffffffffffffffffffffffffffffff169050919050565b606060006109056131c7565b905080600301805461091690614a69565b80601f016020809104026020016040519081016040528092919081815260200182805461094290614a69565b801561098f5780601f106109645761010080835404028352916020019161098f565b820191906000526020600020905b81548152906001019060200180831161097257829003601f168201915b505050505091505090565b6000806109a56131ef565b90506109b28185856131f7565b600191505092915050565b6109c5613209565b6000600254905060005b81811015610a9457826040516020016109e89190614a23565b6040516020818303038152906040528051906020012060036000600184610a0f9190614ac9565b8152602001908152602001600020600101604051602001610a309190614b95565b6040516020818303038152906040528051906020012003610a8757600060036000600184610a5e9190614ac9565b815260200190815260200160002060030160146101000a81548160ff0219169083151502179055505b80806001019150506109cf565b5060005b81811015610bd7578373ffffffffffffffffffffffffffffffffffffffff1660036000600184610ac89190614ac9565b815260200190815260200160002060030160009054906101000a900473ffffffffffffffffffffffffffffffffffffffff1673ffffffffffffffffffffffffffffffffffffffff16148015610b89575082604051602001610b299190614a23565b6040516020818303038152906040528051906020012060036000600184610b509190614ac9565b8152602001908152602001600020600101604051602001610b719190614b95565b60405160208183030381529060405280519060200120145b15610bca57600160036000600184610ba19190614ac9565b815260200190815260200160002060030160146101000a81548160ff0219169083151502179055505b8080600101915050610a98565b5050610be1613260565b5050565b6000610bef613209565b600083868689604051602001610c089493929190614c3e565b6040516020818303038152906040528051906020012090506000610c2b82613279565b90506000610c3982866132af565b90508573ffffffffffffffffffffffffffffffffffffffff168173ffffffffffffffffffffffffffffffffffffffff1614610ca9576040517f08c379a0000000000000000000000000000000000000000000000000000000008152600401610ca090614cd8565b60405180910390fd5b60006103e86001548b610cbc9190614cf8565b610cc69190614d69565b90506000818b610cd69190614d9a565b90508973ffffffffffffffffffffffffffffffffffffffff166323b872dd898b846040518463ffffffff1660e01b8152600401610d1593929190614e2d565b6020604051808303816000875af1158015610d34573d6000803e3d6000fd5b505050506040513d601f19601f82011682018060405250810190610d589190614e90565b508973ffffffffffffffffffffffffffffffffffffffff166323b872dd8960008054906101000a900473ffffffffffffffffffffffffffffffffffffffff16856040518463ffffffff1660e01b8152600401610db693929190614e2d565b6020604051808303816000875af1158015610dd5573d6000803e3d6000fd5b505050506040513d601f19601f82011682018060405250810190610df99190614e90565b50600195505050505050610e0b613260565b95945050505050565b610e1c6132db565b610e24613209565b80600181905550610e33613260565b50565b600080600190506000600254905060005b81811015610f53573373ffffffffffffffffffffffffffffffffffffffff1660036000600184610e779190614ac9565b815260200190815260200160002060030160009054906101000a900473ffffffffffffffffffffffffffffffffffffffff1673ffffffffffffffffffffffffffffffffffffffff16148015610f38575084604051602001610ed89190614a23565b6040516020818303038152906040528051906020012060036000600184610eff9190614ac9565b8152602001908152602001600020600101604051602001610f209190614b95565b60405160208183030381529060405280519060200120145b15610f465760009250610f53565b8080600101915050610e47565b508192505050919050565b600080610f696131c7565b9050806002015491505090565b610f7e613209565b60006103e860015434610f919190614cf8565b610f9b9190614d69565b905060008134610fab9190614d9a565b90508273ffffffffffffffffffffffffffffffffffffffff166108fc829081150290604051600060405180830381858888f19350505050158015610ff3573d6000803e3d6000fd5b5060008054906101000a900473ffffffffffffffffffffffffffffffffffffffff1673ffffffffffffffffffffffffffffffffffffffff166108fc839081150290604051600060405180830381858888f1935050505015801561105a573d6000803e3d6000fd5b505050611065613260565b50565b6000806110736131ef565b9050611080858285613362565b61108b8585856133f7565b60019150509392505050565b60015481565b6110a5613209565b600260008154809291906110b890614ebd565b91905055506000600254905060005b8181101561118c57846040516020016110e09190614a23565b60405160208183030381529060405280519060200120600360006001846111079190614ac9565b81526020019081526020016000206001016040516020016111289190614b95565b604051602081830303815290604052805190602001200361117f576000600360006001846111569190614ac9565b815260200190815260200160002060030160146101000a81548160ff0219169083151502179055505b80806001019150506110c7565b5060405160200161119c90614f2b565b604051602081830303815290604052805190602001206004866040516111c29190614a23565b90815260200160405180910390206000016040516020016111e39190614b95565b6040516020818303038152906040528051906020012014611239576040517f08c379a000000000000000000000000000000000000000000000000000000000815260040161123090614fd8565b60405180910390fd5b6040518060a001604052808681526020018581526020018481526020018373ffffffffffffffffffffffffffffffffffffffff168152602001600115158152506004866040516112899190614a23565b908152602001604051809103902060008201518160000190816112ac9190615185565b5060208201518160010190816112c29190615185565b5060408201518160020190816112d89190615185565b5060608201518160030160006101000a81548173ffffffffffffffffffffffffffffffffffffffff021916908373ffffffffffffffffffffffffffffffffffffffff16021790555060808201518160030160146101000a81548160ff0219169083151502179055509050506040518060a001604052808681526020018581526020018481526020018373ffffffffffffffffffffffffffffffffffffffff168152602001600115158152506003600083815260200190815260200160002060008201518160000190816113ab9190615185565b5060208201518160010190816113c19190615185565b5060408201518160020190816113d79190615185565b5060608201518160030160006101000a81548173ffffffffffffffffffffffffffffffffffffffff021916908373ffffffffffffffffffffffffffffffffffffffff16021790555060808201518160030160146101000a81548160ff021916908315150217905550905050826040516114509190614a23565b6040518091039020846040516114669190614a23565b60405180910390208660405161147c9190614a23565b60405180910390207f2e3249f822bd56e4e9ae7d39402def6df4618c14f212fbe4c35e0c94eddef9fe8560016040516114b6929190615257565b60405180910390a4506114c7613260565b50505050565b60006012905090565b60025481565b60008060009054906101000a900473ffffffffffffffffffffffffffffffffffffffff16905090565b600360205280600052604060002060009150905080600001805461152890614a69565b80601f016020809104026020016040519081016040528092919081815260200182805461155490614a69565b80156115a15780601f10611576576101008083540402835291602001916115a1565b820191906000526020600020905b81548152906001019060200180831161158457829003601f168201915b5050505050908060010180546115b690614a69565b80601f01602080910402602001604051908101604052809291908181526020018280546115e290614a69565b801561162f5780601f106116045761010080835404028352916020019161162f565b820191906000526020600020905b81548152906001019060200180831161161257829003601f168201915b50505050509080600201805461164490614a69565b80601f016020809104026020016040519081016040528092919081815260200182805461167090614a69565b80156116bd5780601f10611692576101008083540402835291602001916116bd565b820191906000526020600020905b8154815290600101906020018083116116a057829003601f168201915b5050505050908060030160009054906101000a900473ffffffffffffffffffffffffffffffffffffffff16908060030160149054906101000a900460ff16905085565b606061170a6132db565b600060025490506000808267ffffffffffffffff81111561172e5761172d613f09565b5b60405190808252806020026020018201604052801561176757816020015b611754613e93565b81526020019060019003908161174c5790505b50905060005b83811015611a0c5760006001826117849190614ac9565b90506000600360008381526020019081526020016000209050806040518060a00160405290816000820180546117b990614a69565b80601f01602080910402602001604051908101604052809291908181526020018280546117e590614a69565b80156118325780601f1061180757610100808354040283529160200191611832565b820191906000526020600020905b81548152906001019060200180831161181557829003601f168201915b5050505050815260200160018201805461184b90614a69565b80601f016020809104026020016040519081016040528092919081815260200182805461187790614a69565b80156118c45780601f10611899576101008083540402835291602001916118c4565b820191906000526020600020905b8154815290600101906020018083116118a757829003601f168201915b505050505081526020016002820180546118dd90614a69565b80601f016020809104026020016040519081016040528092919081815260200182805461190990614a69565b80156119565780601f1061192b57610100808354040283529160200191611956565b820191906000526020600020905b81548152906001019060200180831161193957829003601f168201915b505050505081526020016003820160009054906101000a900473ffffffffffffffffffffffffffffffffffffffff1673ffffffffffffffffffffffffffffffffffffffff1673ffffffffffffffffffffffffffffffffffffffff1681526020016003820160149054906101000a900460ff1615151515815250508486815181106119e3576119e2615280565b5b60200260200101819052506001856119fb9190614ac9565b94505050808060010191505061176d565b5080935050505090565b60008054906101000a900473ffffffffffffffffffffffffffffffffffffffff1681565b611a426132db565b806000806101000a81548173ffffffffffffffffffffffffffffffffffffffff021916908373ffffffffffffffffffffffffffffffffffffffff16021790555050565b60606000600254905060008060005b83811015611b2d5785604051602001611aad9190614a23565b6040516020818303038152906040528051906020012060036000600184611ad49190614ac9565b8152602001908152602001600020600101604051602001611af59190614b95565b6040516020818303038152906040528051906020012003611b2057600183611b1d9190614ac9565b92505b8080600101915050611a94565b5060008267ffffffffffffffff811115611b4a57611b49613f09565b5b604051908082528060200260200182016040528015611b8357816020015b611b70613e93565b815260200190600190039081611b685790505b50905060005b84811015611e9d5786604051602001611ba29190614a23565b6040516020818303038152906040528051906020012060036000600184611bc99190614ac9565b8152602001908152602001600020600101604051602001611bea9190614b95565b6040516020818303038152906040528051906020012003611e90576000600182611c149190614ac9565b90506000600360008381526020019081526020016000209050806040518060a0016040529081600082018054611c4990614a69565b80601f0160208091040260200160405190810160405280929190818152602001828054611c7590614a69565b8015611cc25780601f10611c9757610100808354040283529160200191611cc2565b820191906000526020600020905b815481529060010190602001808311611ca557829003601f168201915b50505050508152602001600182018054611cdb90614a69565b80601f0160208091040260200160405190810160405280929190818152602001828054611d0790614a69565b8015611d545780601f10611d2957610100808354040283529160200191611d54565b820191906000526020600020905b815481529060010190602001808311611d3757829003601f168201915b50505050508152602001600282018054611d6d90614a69565b80601f0160208091040260200160405190810160405280929190818152602001828054611d9990614a69565b8015611de65780601f10611dbb57610100808354040283529160200191611de6565b820191906000526020600020905b815481529060010190602001808311611dc957829003601f168201915b505050505081526020016003820160009054906101000a900473ffffffffffffffffffffffffffffffffffffffff1673ffffffffffffffffffffffffffffffffffffffff1673ffffffffffffffffffffffffffffffffffffffff1681526020016003820160149054906101000a900460ff161515151581525050848681518110611e7357611e72615280565b5b6020026020010181905250600185611e8b9190614ac9565b945050505b8080600101915050611b89565b5080945050505050919050565b600080611eb56131c7565b90508060000160008473ffffffffffffffffffffffffffffffffffffffff1673ffffffffffffffffffffffffffffffffffffffff16815260200190815260200160002054915050919050565b611f096132db565b611f1360006134eb565b565b6060600060025490506000808267ffffffffffffffff811115611f3b57611f3a613f09565b5b604051908082528060200260200182016040528015611f7457816020015b611f61613e93565b815260200190600190039081611f595790505b50905060005b83811015612289578573ffffffffffffffffffffffffffffffffffffffff1660036000600184611faa9190614ac9565b815260200190815260200160002060030160009054906101000a900473ffffffffffffffffffffffffffffffffffffffff1673ffffffffffffffffffffffffffffffffffffffff160361227c5760006003600060018461200a9190614ac9565b81526020019081526020016000209050806040518060a001604052908160008201805461203690614a69565b80601f016020809104026020016040519081016040528092919081815260200182805461206290614a69565b80156120af5780601f10612084576101008083540402835291602001916120af565b820191906000526020600020905b81548152906001019060200180831161209257829003601f168201915b505050505081526020016001820180546120c890614a69565b80601f01602080910402602001604051908101604052809291908181526020018280546120f490614a69565b80156121415780601f1061211657610100808354040283529160200191612141565b820191906000526020600020905b81548152906001019060200180831161212457829003601f168201915b5050505050815260200160028201805461215a90614a69565b80601f016020809104026020016040519081016040528092919081815260200182805461218690614a69565b80156121d35780601f106121a8576101008083540402835291602001916121d3565b820191906000526020600020905b8154815290600101906020018083116121b657829003601f168201915b505050505081526020016003820160009054906101000a900473ffffffffffffffffffffffffffffffffffffffff1673ffffffffffffffffffffffffffffffffffffffff1673ffffffffffffffffffffffffffffffffffffffff1681526020016003820160149054906101000a900460ff1615151515815250508385815181106122605761225f615280565b5b60200260200101819052506001846122789190614ac9565b9350505b8080600101915050611f7a565b50809350505050919050565b6000806122a06135c2565b90508060000160009054906101000a900473ffffffffffffffffffffffffffffffffffffffff1691505090565b606060006122d96131c7565b90508060040180546122ea90614a69565b80601f016020809104026020016040519081016040528092919081815260200182805461231690614a69565b80156123635780601f1061233857610100808354040283529160200191612363565b820191906000526020600020905b81548152906001019060200180831161234657829003601f168201915b505050505091505090565b6000806123796131ef565b90506123868185856133f7565b600191505092915050565b612399613209565b6000600254905060005b818110156125a8578273ffffffffffffffffffffffffffffffffffffffff16600360006001846123d39190614ac9565b815260200190815260200160002060030160009054906101000a900473ffffffffffffffffffffffffffffffffffffffff1673ffffffffffffffffffffffffffffffffffffffff160361259b57846040516020016124319190614a23565b60405160208183030381529060405280519060200120600360006001846124589190614ac9565b81526020019081526020016000206002016040516020016124799190614b95565b604051602081830303815290604052805190602001200361259a57836040516020016124a59190614a23565b60405160208183030381529060405280519060200120600360006001846124cc9190614ac9565b81526020019081526020016000206001016040516020016124ed9190614b95565b604051602081830303815290604052805190602001200361259957866003600060018461251a9190614ac9565b815260200190815260200160002060000190816125379190615185565b50856003600060018461254a9190614ac9565b815260200190815260200160002060010190816125679190615185565b50846003600060018461257a9190614ac9565b815260200190815260200160002060020190816125979190615185565b505b5b5b80806001019150506123a3565b50506125b2613260565b5050505050565b6125c16132db565b6125c9613209565b600560009054906101000a900473ffffffffffffffffffffffffffffffffffffffff1673ffffffffffffffffffffffffffffffffffffffff1663a9059cbb82846040518363ffffffff1660e01b81526004016126269291906152af565b6020604051808303816000875af1158015612645573d6000803e3d6000fd5b505050506040513d601f19601f820116820180604052508101906126699190614e90565b50612672613260565b5050565b60006126806135ea565b905060008160000160089054906101000a900460ff1615905060008260000160009054906101000a900467ffffffffffffffff1690506000808267ffffffffffffffff161480156126ce5750825b9050600060018367ffffffffffffffff16148015612703575060003073ffffffffffffffffffffffffffffffffffffffff163b145b905081158015612711575080155b15612748576040517ff92ee8a900000000000000000000000000000000000000000000000000000000815260040160405180910390fd5b60018560000160006101000a81548167ffffffffffffffff021916908367ffffffffffffffff16021790555083156127985760018560000160086101000a81548160ff0219169083151502179055505b6127c06040518060200160405280600081525060405180602001604052806000815250613612565b6127c8613628565b6127d13361363a565b336000806101000a81548173ffffffffffffffffffffffffffffffffffffffff021916908373ffffffffffffffffffffffffffffffffffffffff160217905550600560018190555085600560006101000a81548173ffffffffffffffffffffffffffffffffffffffff021916908373ffffffffffffffffffffffffffffffffffffffff16021790555083156128b65760008560000160086101000a81548160ff0219169083151502179055507fc7f505b2f371ae2175ee4913f4499e1f2633a7b5936321eed1cdaeb6115181d260016040516128ad9190615327565b60405180910390a15b505050505050565b6060600060025490506000808267ffffffffffffffff8111156128e4576128e3613f09565b5b60405190808252806020026020018201604052801561291d57816020015b61290a613e93565b8152602001906001900390816129025790505b50905060005b83811015612ce1573373ffffffffffffffffffffffffffffffffffffffff16600360006001846129539190614ac9565b815260200190815260200160002060030160009054906101000a900473ffffffffffffffffffffffffffffffffffffffff1673ffffffffffffffffffffffffffffffffffffffff1603612cd45760005b84811015612cd257600360006001846129bc9190614ac9565b81526020019081526020016000206001016040516020016129dd9190614b95565b6040516020818303038152906040528051906020012060036000600184612a049190614ac9565b8152602001908152602001600020600101604051602001612a259190614b95565b6040516020818303038152906040528051906020012003612cc557600060036000600184612a539190614ac9565b81526020019081526020016000209050806040518060a0016040529081600082018054612a7f90614a69565b80601f0160208091040260200160405190810160405280929190818152602001828054612aab90614a69565b8015612af85780601f10612acd57610100808354040283529160200191612af8565b820191906000526020600020905b815481529060010190602001808311612adb57829003601f168201915b50505050508152602001600182018054612b1190614a69565b80601f0160208091040260200160405190810160405280929190818152602001828054612b3d90614a69565b8015612b8a5780601f10612b5f57610100808354040283529160200191612b8a565b820191906000526020600020905b815481529060010190602001808311612b6d57829003601f168201915b50505050508152602001600282018054612ba390614a69565b80601f0160208091040260200160405190810160405280929190818152602001828054612bcf90614a69565b8015612c1c5780601f10612bf157610100808354040283529160200191612c1c565b820191906000526020600020905b815481529060010190602001808311612bff57829003601f168201915b505050505081526020016003820160009054906101000a900473ffffffffffffffffffffffffffffffffffffffff1673ffffffffffffffffffffffffffffffffffffffff1673ffffffffffffffffffffffffffffffffffffffff1681526020016003820160149054906101000a900460ff161515151581525050848681518110612ca957612ca8615280565b5b6020026020010181905250600185612cc19190614ac9565b9450505b80806001019150506129a3565b505b8080600101915050612923565b5080935050505090565b60008060025490506000805b82811015612e0a5784604051602001612d109190614a23565b6040516020818303038152906040528051906020012060036000600184612d379190614ac9565b8152602001908152602001600020600101604051602001612d589190614b95565b60405160208183030381529060405280519060200120148015612dae57506001151560036000600184612d8b9190614ac9565b815260200190815260200160002060030160149054906101000a900460ff161515145b15612dfd5760036000600183612dc49190614ac9565b815260200190815260200160002060030160009054906101000a900473ffffffffffffffffffffffffffffffffffffffff169150612e0a565b8080600101915050612cf7565b508092505050919050565b600080612e206131c7565b90508060010160008573ffffffffffffffffffffffffffffffffffffffff1673ffffffffffffffffffffffffffffffffffffffff16815260200190815260200160002060008473ffffffffffffffffffffffffffffffffffffffff1673ffffffffffffffffffffffffffffffffffffffff1681526020019081526020016000205491505092915050565b6000604051602001612ebb90614f2b565b60405160208183030381529060405280519060200120600483604051612ee19190614a23565b9081526020016040518091039020600001604051602001612f029190614b95565b6040516020818303038152906040528051906020012003612f265760019050612f2b565b600090505b919050565b600481805160208101820180518482526020830160208501208183528095505050505050600091509050806000018054612f6990614a69565b80601f0160208091040260200160405190810160405280929190818152602001828054612f9590614a69565b8015612fe25780601f10612fb757610100808354040283529160200191612fe2565b820191906000526020600020905b815481529060010190602001808311612fc557829003601f168201915b505050505090806001018054612ff790614a69565b80601f016020809104026020016040519081016040528092919081815260200182805461302390614a69565b80156130705780601f1061304557610100808354040283529160200191613070565b820191906000526020600020905b81548152906001019060200180831161305357829003601f168201915b50505050509080600201805461308590614a69565b80601f01602080910402602001604051908101604052809291908181526020018280546130b190614a69565b80156130fe5780601f106130d3576101008083540402835291602001916130fe565b820191906000526020600020905b8154815290600101906020018083116130e157829003601f168201915b5050505050908060030160009054906101000a900473ffffffffffffffffffffffffffffffffffffffff16908060030160149054906101000a900460ff16905085565b6131496132db565b600073ffffffffffffffffffffffffffffffffffffffff168173ffffffffffffffffffffffffffffffffffffffff16036131bb5760006040517f1e4fbdf70000000000000000000000000000000000000000000000000000000081526004016131b291906140be565b60405180910390fd5b6131c4816134eb565b50565b60007f52c63247e1f47db19d5ce0460030c497f067ca4cebf71ba98eeadabe20bace00905090565b600033905090565b613204838383600161364e565b505050565b6000613213613834565b90506002816000015403613253576040517f3ee5aeb500000000000000000000000000000000000000000000000000000000815260040160405180910390fd5b6002816000018190555050565b600061326a613834565b90506001816000018190555050565b60007f19457468657265756d205369676e6564204d6573736167653a0a33320000000060005281601c52603c6000209050919050565b6000806000806132bf868661385c565b9250925092506132cf82826138b8565b82935050505092915050565b6132e36131ef565b73ffffffffffffffffffffffffffffffffffffffff16613301612295565b73ffffffffffffffffffffffffffffffffffffffff1614613360576133246131ef565b6040517f118cdaa700000000000000000000000000000000000000000000000000000000815260040161335791906140be565b60405180910390fd5b565b600061336e8484612e15565b90507fffffffffffffffffffffffffffffffffffffffffffffffffffffffffffffffff8110156133f157818110156133e1578281836040517ffb8f41b20000000000000000000000000000000000000000000000000000000081526004016133d893929190615342565b60405180910390fd5b6133f08484848403600061364e565b5b50505050565b600073ffffffffffffffffffffffffffffffffffffffff168373ffffffffffffffffffffffffffffffffffffffff16036134695760006040517f96c6fd1e00000000000000000000000000000000000000000000000000000000815260040161346091906140be565b60405180910390fd5b600073ffffffffffffffffffffffffffffffffffffffff168273ffffffffffffffffffffffffffffffffffffffff16036134db5760006040517fec442f050000000000000000000000000000000000000000000000000000000081526004016134d291906140be565b60405180910390fd5b6134e6838383613a1c565b505050565b60006134f56135c2565b905060008160000160009054906101000a900473ffffffffffffffffffffffffffffffffffffffff169050828260000160006101000a81548173ffffffffffffffffffffffffffffffffffffffff021916908373ffffffffffffffffffffffffffffffffffffffff1602179055508273ffffffffffffffffffffffffffffffffffffffff168173ffffffffffffffffffffffffffffffffffffffff167f8be0079c531659141344cd1fd0a4f28419497f9722a3daafe3b4186f6b6457e060405160405180910390a3505050565b60007f9016d09d72d40fdae2fd8ceac6b6234c7706214fd39c1cd1e609a0528c199300905090565b60007ff0c57e16840df040f15088dc2f81fe391c3923bec73e23a9662efc9c229c6a00905090565b61361a613c5b565b6136248282613c9b565b5050565b613630613c5b565b613638613cd8565b565b613642613c5b565b61364b81613cf9565b50565b60006136586131c7565b9050600073ffffffffffffffffffffffffffffffffffffffff168573ffffffffffffffffffffffffffffffffffffffff16036136cc5760006040517fe602df050000000000000000000000000000000000000000000000000000000081526004016136c391906140be565b60405180910390fd5b600073ffffffffffffffffffffffffffffffffffffffff168473ffffffffffffffffffffffffffffffffffffffff160361373e5760006040517f94280d6200000000000000000000000000000000000000000000000000000000815260040161373591906140be565b60405180910390fd5b828160010160008773ffffffffffffffffffffffffffffffffffffffff1673ffffffffffffffffffffffffffffffffffffffff16815260200190815260200160002060008673ffffffffffffffffffffffffffffffffffffffff1673ffffffffffffffffffffffffffffffffffffffff16815260200190815260200160002081905550811561382d578373ffffffffffffffffffffffffffffffffffffffff168573ffffffffffffffffffffffffffffffffffffffff167f8c5be1e5ebec7d5bd14f71427d1e84f3dd0314c0f7b2291e5b200ac8c7c3b925856040516138249190614460565b60405180910390a35b5050505050565b60007f9b779b17422d0df92223018b32b4d1fa46e071723d6817e2486d003becc55f00905090565b600080600060418451036138a15760008060006020870151925060408701519150606087015160001a905061389388828585613d7f565b9550955095505050506138b1565b60006002855160001b9250925092505b9250925092565b600060038111156138cc576138cb615379565b5b8260038111156138df576138de615379565b5b0315613a1857600160038111156138f9576138f8615379565b5b82600381111561390c5761390b615379565b5b03613943576040517ff645eedf00000000000000000000000000000000000000000000000000000000815260040160405180910390fd5b6002600381111561395757613956615379565b5b82600381111561396a57613969615379565b5b036139af578060001c6040517ffce698f70000000000000000000000000000000000000000000000000000000081526004016139a69190614460565b60405180910390fd5b6003808111156139c2576139c1615379565b5b8260038111156139d5576139d4615379565b5b03613a1757806040517fd78bce0c000000000000000000000000000000000000000000000000000000008152600401613a0e91906153c1565b60405180910390fd5b5b5050565b6000613a266131c7565b9050600073ffffffffffffffffffffffffffffffffffffffff168473ffffffffffffffffffffffffffffffffffffffff1603613a7c5781816002016000828254613a709190614ac9565b92505081905550613b55565b60008160000160008673ffffffffffffffffffffffffffffffffffffffff1673ffffffffffffffffffffffffffffffffffffffff16815260200190815260200160002054905082811015613b0b578481846040517fe450d38c000000000000000000000000000000000000000000000000000000008152600401613b0293929190615342565b60405180910390fd5b8281038260000160008773ffffffffffffffffffffffffffffffffffffffff1673ffffffffffffffffffffffffffffffffffffffff16815260200190815260200160002081905550505b600073ffffffffffffffffffffffffffffffffffffffff168373ffffffffffffffffffffffffffffffffffffffff1603613ba057818160020160008282540392505081905550613bf0565b818160000160008573ffffffffffffffffffffffffffffffffffffffff1673ffffffffffffffffffffffffffffffffffffffff168152602001908152602001600020600082825401925050819055505b8273ffffffffffffffffffffffffffffffffffffffff168473ffffffffffffffffffffffffffffffffffffffff167fddf252ad1be2c89b69c2b068fc378daa952ba7f163c4a11628f55a4df523b3ef84604051613c4d9190614460565b60405180910390a350505050565b613c63613e73565b613c99576040517fd7e6bcf800000000000000000000000000000000000000000000000000000000815260040160405180910390fd5b565b613ca3613c5b565b6000613cad6131c7565b905082816003019081613cc09190615185565b5081816004019081613cd29190615185565b50505050565b613ce0613c5b565b6000613cea613834565b90506001816000018190555050565b613d01613c5b565b600073ffffffffffffffffffffffffffffffffffffffff168173ffffffffffffffffffffffffffffffffffffffff1603613d735760006040517f1e4fbdf7000000000000000000000000000000000000000000000000000000008152600401613d6a91906140be565b60405180910390fd5b613d7c816134eb565b50565b60008060007f7fffffffffffffffffffffffffffffff5d576e7357a4501ddfe92f46681b20a08460001c1115613dbf576000600385925092509250613e69565b600060018888888860405160008152602001604052604051613de494939291906153dc565b6020604051602081039080840390855afa158015613e06573d6000803e3d6000fd5b505050602060405103519050600073ffffffffffffffffffffffffffffffffffffffff168173ffffffffffffffffffffffffffffffffffffffff1603613e5a57600060016000801b93509350935050613e69565b8060008060001b935093509350505b9450945094915050565b6000613e7d6135ea565b60000160089054906101000a900460ff16905090565b6040518060a00160405280606081526020016060815260200160608152602001600073ffffffffffffffffffffffffffffffffffffffff1681526020016000151581525090565b6000604051905090565b600080fd5b600080fd5b600080fd5b600080fd5b6000601f19601f8301169050919050565b7f4e487b7100000000000000000000000000000000000000000000000000000000600052604160045260246000fd5b613f4182613ef8565b810181811067ffffffffffffffff82111715613f6057613f5f613f09565b5b80604052505050565b6000613f73613eda565b9050613f7f8282613f38565b919050565b600067ffffffffffffffff821115613f9f57613f9e613f09565b5b613fa882613ef8565b9050602081019050919050565b82818337600083830152505050565b6000613fd7613fd284613f84565b613f69565b905082815260208101848484011115613ff357613ff2613ef3565b5b613ffe848285613fb5565b509392505050565b600082601f83011261401b5761401a613eee565b5b813561402b848260208601613fc4565b91505092915050565b60006020828403121561404a57614049613ee4565b5b600082013567ffffffffffffffff81111561406857614067613ee9565b5b61407484828501614006565b91505092915050565b600073ffffffffffffffffffffffffffffffffffffffff82169050919050565b60006140a88261407d565b9050919050565b6140b88161409d565b82525050565b60006020820190506140d360008301846140af565b92915050565b600081519050919050565b600082825260208201905092915050565b60005b838110156141135780820151818401526020810190506140f8565b60008484015250505050565b600061412a826140d9565b61413481856140e4565b93506141448185602086016140f5565b61414d81613ef8565b840191505092915050565b60006020820190508181036000830152614172818461411f565b905092915050565b6141838161409d565b811461418e57600080fd5b50565b6000813590506141a08161417a565b92915050565b6000819050919050565b6141b9816141a6565b81146141c457600080fd5b50565b6000813590506141d6816141b0565b92915050565b600080604083850312156141f3576141f2613ee4565b5b600061420185828601614191565b9250506020614212858286016141c7565b9150509250929050565b60008115159050919050565b6142318161421c565b82525050565b600060208201905061424c6000830184614228565b92915050565b6000806040838503121561426957614268613ee4565b5b600061427785828601614191565b925050602083013567ffffffffffffffff81111561429857614297613ee9565b5b6142a485828601614006565b9150509250929050565b60006142b98261407d565b9050919050565b6142c9816142ae565b81146142d457600080fd5b50565b6000813590506142e6816142c0565b92915050565b600067ffffffffffffffff82111561430757614306613f09565b5b61431082613ef8565b9050602081019050919050565b600061433061432b846142ec565b613f69565b90508281526020810184848401111561434c5761434b613ef3565b5b614357848285613fb5565b509392505050565b600082601f83011261437457614373613eee565b5b813561438484826020860161431d565b91505092915050565b600080600080600060a086880312156143a9576143a8613ee4565b5b60006143b7888289016141c7565b95505060206143c888828901614191565b94505060406143d9888289016142d7565b93505060606143ea88828901614191565b925050608086013567ffffffffffffffff81111561440b5761440a613ee9565b5b6144178882890161435f565b9150509295509295909350565b60006020828403121561443a57614439613ee4565b5b6000614448848285016141c7565b91505092915050565b61445a816141a6565b82525050565b60006020820190506144756000830184614451565b92915050565b60006020828403121561449157614490613ee4565b5b600061449f848285016142d7565b91505092915050565b6000806000606084860312156144c1576144c0613ee4565b5b60006144cf86828701614191565b93505060206144e086828701614191565b92505060406144f1868287016141c7565b9150509250925092565b6000806000806080858703121561451557614514613ee4565b5b600085013567ffffffffffffffff81111561453357614532613ee9565b5b61453f87828801614006565b945050602085013567ffffffffffffffff8111156145605761455f613ee9565b5b61456c87828801614006565b935050604085013567ffffffffffffffff81111561458d5761458c613ee9565b5b61459987828801614006565b92505060606145aa87828801614191565b91505092959194509250565b600060ff82169050919050565b6145cc816145b6565b82525050565b60006020820190506145e760008301846145c3565b92915050565b6145f6816142ae565b82525050565b600060208201905061461160008301846145ed565b92915050565b600060a0820190508181036000830152614631818861411f565b90508181036020830152614645818761411f565b90508181036040830152614659818661411f565b905061466860608301856140af565b6146756080830184614228565b9695505050505050565b600081519050919050565b600082825260208201905092915050565b6000819050602082019050919050565b600082825260208201905092915050565b60006146c7826140d9565b6146d181856146ab565b93506146e18185602086016140f5565b6146ea81613ef8565b840191505092915050565b6146fe8161409d565b82525050565b61470d8161421c565b82525050565b600060a083016000830151848203600086015261473082826146bc565b9150506020830151848203602086015261474a82826146bc565b9150506040830151848203604086015261476482826146bc565b915050606083015161477960608601826146f5565b50608083015161478c6080860182614704565b508091505092915050565b60006147a38383614713565b905092915050565b6000602082019050919050565b60006147c38261467f565b6147cd818561468a565b9350836020820285016147df8561469b565b8060005b8581101561481b57848403895281516147fc8582614797565b9450614807836147ab565b925060208a019950506001810190506147e3565b50829750879550505050505092915050565b6000602082019050818103600083015261484781846147b8565b905092915050565b60006020828403121561486557614864613ee4565b5b600061487384828501614191565b91505092915050565b600080600080600060a0868803121561489857614897613ee4565b5b600086013567ffffffffffffffff8111156148b6576148b5613ee9565b5b6148c288828901614006565b955050602086013567ffffffffffffffff8111156148e3576148e2613ee9565b5b6148ef88828901614006565b945050604086013567ffffffffffffffff8111156149105761490f613ee9565b5b61491c88828901614006565b935050606086013567ffffffffffffffff81111561493d5761493c613ee9565b5b61494988828901614006565b925050608061495a88828901614191565b9150509295509295909350565b6000806040838503121561497e5761497d613ee4565b5b600061498c858286016141c7565b925050602061499d858286016142d7565b9150509250929050565b600080604083850312156149be576149bd613ee4565b5b60006149cc85828601614191565b92505060206149dd85828601614191565b9150509250929050565b600081905092915050565b60006149fd826140d9565b614a0781856149e7565b9350614a178185602086016140f5565b80840191505092915050565b6000614a2f82846149f2565b915081905092915050565b7f4e487b7100000000000000000000000000000000000000000000000000000000600052602260045260246000fd5b60006002820490506001821680614a8157607f821691505b602082108103614a9457614a93614a3a565b5b50919050565b7f4e487b7100000000000000000000000000000000000000000000000000000000600052601160045260246000fd5b6000614ad4826141a6565b9150614adf836141a6565b9250828201905080821115614af757614af6614a9a565b5b92915050565b60008190508160005260206000209050919050565b60008154614b1f81614a69565b614b2981866149e7565b94506001821660008114614b445760018114614b5957614b8c565b60ff1983168652811515820286019350614b8c565b614b6285614afd565b60005b83811015614b8457815481890152600182019150602081019050614b65565b838801955050505b50505092915050565b6000614ba18284614b12565b915081905092915050565b60008160601b9050919050565b6000614bc482614bac565b9050919050565b6000614bd682614bb9565b9050919050565b614bee614be98261409d565b614bcb565b82525050565b6000614bff82614bb9565b9050919050565b614c17614c12826142ae565b614bf4565b82525050565b6000819050919050565b614c38614c33826141a6565b614c1d565b82525050565b6000614c4a8287614bdd565b601482019150614c5a8286614bdd565b601482019150614c6a8285614c06565b601482019150614c7a8284614c27565b60208201915081905095945050505050565b7f496e76616c6964207369676e6174757265000000000000000000000000000000600082015250565b6000614cc26011836140e4565b9150614ccd82614c8c565b602082019050919050565b60006020820190508181036000830152614cf181614cb5565b9050919050565b6000614d03826141a6565b9150614d0e836141a6565b9250828202614d1c816141a6565b91508282048414831517614d3357614d32614a9a565b5b5092915050565b7f4e487b7100000000000000000000000000000000000000000000000000000000600052601260045260246000fd5b6000614d74826141a6565b9150614d7f836141a6565b925082614d8f57614d8e614d3a565b5b828204905092915050565b6000614da5826141a6565b9150614db0836141a6565b9250828203905081811115614dc857614dc7614a9a565b5b92915050565b6000819050919050565b6000614df3614dee614de98461407d565b614dce565b61407d565b9050919050565b6000614e0582614dd8565b9050919050565b6000614e1782614dfa565b9050919050565b614e2781614e0c565b82525050565b6000606082019050614e4260008301866140af565b614e4f6020830185614e1e565b614e5c6040830184614451565b949350505050565b614e6d8161421c565b8114614e7857600080fd5b50565b600081519050614e8a81614e64565b92915050565b600060208284031215614ea657614ea5613ee4565b5b6000614eb484828501614e7b565b91505092915050565b6000614ec8826141a6565b91507fffffffffffffffffffffffffffffffffffffffffffffffffffffffffffffffff8203614efa57614ef9614a9a565b5b600182019050919050565b50565b6000614f156000836149e7565b9150614f2082614f05565b600082019050919050565b6000614f3682614f08565b9150819050919050565b7f416e20554349206964206173736f63696174656420776974682074686973206e60008201527f616d6520616c7265616479206578697374732e20506c656173652063686f6f7360208201527f65206120646966666572656e74206e616d652021210000000000000000000000604082015250565b6000614fc26055836140e4565b9150614fcd82614f40565b606082019050919050565b60006020820190508181036000830152614ff181614fb5565b9050919050565b60006020601f8301049050919050565b600082821b905092915050565b6000600883026150457fffffffffffffffffffffffffffffffffffffffffffffffffffffffffffffffff82615008565b61504f8683615008565b95508019841693508086168417925050509392505050565b600061508261507d615078846141a6565b614dce565b6141a6565b9050919050565b6000819050919050565b61509c83615067565b6150b06150a882615089565b848454615015565b825550505050565b600090565b6150c56150b8565b6150d0818484615093565b505050565b5b818110156150f4576150e96000826150bd565b6001810190506150d6565b5050565b601f8211156151395761510a81614afd565b61511384614ff8565b81016020851015615122578190505b61513661512e85614ff8565b8301826150d5565b50505b505050565b600082821c905092915050565b600061515c6000198460080261513e565b1980831691505092915050565b6000615175838361514b565b9150826002028217905092915050565b61518e826140d9565b67ffffffffffffffff8111156151a7576151a6613f09565b5b6151b18254614a69565b6151bc8282856150f8565b600060209050601f8311600181146151ef57600084156151dd578287015190505b6151e78582615169565b86555061524f565b601f1984166151fd86614afd565b60005b8281101561522557848901518255600182019150602085019450602081019050615200565b86831015615242578489015161523e601f89168261514b565b8355505b6001600288020188555050505b505050505050565b600060408201905061526c60008301856140af565b6152796020830184614228565b9392505050565b7f4e487b7100000000000000000000000000000000000000000000000000000000600052603260045260246000fd5b60006040820190506152c46000830185614e1e565b6152d16020830184614451565b9392505050565b6000819050919050565b600067ffffffffffffffff82169050919050565b600061531161530c615307846152d8565b614dce565b6152e2565b9050919050565b615321816152f6565b82525050565b600060208201905061533c6000830184615318565b92915050565b600060608201905061535760008301866140af565b6153646020830185614451565b6153716040830184614451565b949350505050565b7f4e487b7100000000000000000000000000000000000000000000000000000000600052602160045260246000fd5b6000819050919050565b6153bb816153a8565b82525050565b60006020820190506153d660008301846153b2565b92915050565b60006080820190506153f160008301876153b2565b6153fe60208301866145c3565b61540b60408301856153b2565b61541860608301846153b2565b9594505050505056fea2646970667358221220bf822f1dd77786e7fadab5d67b5a48655eba16d7d09a11bbec7312494db22dc064736f6c634300081c0033",
  "linkReferences": {},
  "deployedLinkReferences": {}
}