{
  "_format": "hh-sol-artifact-1",
  "contractName": "Gateway",
  "sourceName": "contracts/Gateway.sol",
  "abi": [
    {
      "inputs": [
        {
          "internalType": "address",
          "name": "spender",
          "type": "address"
        },
        {
          "internalType": "uint256",
          "name": "allowance",
          "type": "uint256"
        },
        {
          "internalType": "uint256",
          "name": "needed",
          "type": "uint256"
        }
      ],
      "name": "ERC20InsufficientAllowance",
      "type": "error"
    },
    {
      "inputs": [
        {
          "internalType": "address",
          "name": "sender",
          "type": "address"
        },
        {
          "internalType": "uint256",
          "name": "balance",
          "type": "uint256"
        },
        {
          "internalType": "uint256",
          "name": "needed",
          "type": "uint256"
        }
      ],
      "name": "ERC20InsufficientBalance",
      "type": "error"
    },
    {
      "inputs": [
        {
          "internalType": "address",
          "name": "approver",
          "type": "address"
        }
      ],
      "name": "ERC20InvalidApprover",
      "type": "error"
    },
    {
      "inputs": [
        {
          "internalType": "address",
          "name": "receiver",
          "type": "address"
        }
      ],
      "name": "ERC20InvalidReceiver",
      "type": "error"
    },
    {
      "inputs": [
        {
          "internalType": "address",
          "name": "sender",
          "type": "address"
        }
      ],
      "name": "ERC20InvalidSender",
      "type": "error"
    },
    {
      "inputs": [
        {
          "internalType": "address",
          "name": "spender",
          "type": "address"
        }
      ],
      "name": "ERC20InvalidSpender",
      "type": "error"
    },
    {
      "inputs": [],
      "name": "InvalidInitialization",
      "type": "error"
    },
    {
      "inputs": [],
      "name": "NotInitializing",
      "type": "error"
    },
    {
      "inputs": [
        {
          "internalType": "address",
          "name": "owner",
          "type": "address"
        }
      ],
      "name": "OwnableInvalidOwner",
      "type": "error"
    },
    {
      "inputs": [
        {
          "internalType": "address",
          "name": "account",
          "type": "address"
        }
      ],
      "name": "OwnableUnauthorizedAccount",
      "type": "error"
    },
    {
      "inputs": [],
      "name": "ReentrancyGuardReentrantCall",
      "type": "error"
    },
    {
      "anonymous": false,
      "inputs": [
        {
          "indexed": true,
          "internalType": "address",
          "name": "owner",
          "type": "address"
        },
        {
          "indexed": true,
          "internalType": "address",
          "name": "spender",
          "type": "address"
        },
        {
          "indexed": false,
          "internalType": "uint256",
          "name": "value",
          "type": "uint256"
        }
      ],
      "name": "Approval",
      "type": "event"
    },
    {
      "anonymous": false,
      "inputs": [
        {
          "indexed": false,
          "internalType": "uint64",
          "name": "version",
          "type": "uint64"
        }
      ],
      "name": "Initialized",
      "type": "event"
    },
    {
      "anonymous": false,
      "inputs": [
        {
          "indexed": true,
          "internalType": "address",
          "name": "previousOwner",
          "type": "address"
        },
        {
          "indexed": true,
          "internalType": "address",
          "name": "newOwner",
          "type": "address"
        }
      ],
      "name": "OwnershipTransferred",
      "type": "event"
    },
    {
      "anonymous": false,
      "inputs": [
        {
          "indexed": true,
          "internalType": "address",
          "name": "from",
          "type": "address"
        },
        {
          "indexed": true,
          "internalType": "address",
          "name": "to",
          "type": "address"
        },
        {
          "indexed": false,
          "internalType": "uint256",
          "name": "value",
          "type": "uint256"
        }
      ],
      "name": "Transfer",
      "type": "event"
    },
    {
      "stateMutability": "payable",
      "type": "fallback"
    },
    {
      "inputs": [
        {
          "internalType": "address",
          "name": "owner",
          "type": "address"
        },
        {
          "internalType": "address",
          "name": "spender",
          "type": "address"
        }
      ],
      "name": "allowance",
      "outputs": [
        {
          "internalType": "uint256",
          "name": "",
          "type": "uint256"
        }
      ],
      "stateMutability": "view",
      "type": "function"
    },
    {
      "inputs": [
        {
          "internalType": "address",
          "name": "spender",
          "type": "address"
        },
        {
          "internalType": "uint256",
          "name": "value",
          "type": "uint256"
        }
      ],
      "name": "approve",
      "outputs": [
        {
          "internalType": "bool",
          "name": "",
          "type": "bool"
        }
      ],
      "stateMutability": "nonpayable",
      "type": "function"
    },
    {
      "inputs": [
        {
          "internalType": "address",
          "name": "account",
          "type": "address"
        }
      ],
      "name": "balanceOf",
      "outputs": [
        {
          "internalType": "uint256",
          "name": "",
          "type": "uint256"
        }
      ],
      "stateMutability": "view",
      "type": "function"
    },
    {
      "inputs": [
        {
          "internalType": "uint256",
          "name": "coinAmount",
          "type": "uint256"
        },
        {
          "internalType": "address",
          "name": "token",
          "type": "address"
        },
        {
          "internalType": "address payable",
          "name": "seller",
          "type": "address"
        }
      ],
      "name": "checkHash",
      "outputs": [
        {
          "internalType": "bytes32",
          "name": "",
          "type": "bytes32"
        }
      ],
      "stateMutability": "view",
      "type": "function"
    },
    {
      "inputs": [
        {
          "internalType": "string",
          "name": "coinAmount",
          "type": "string"
        },
        {
          "internalType": "address payable",
          "name": "seller",
          "type": "address"
        }
      ],
      "name": "checkHashNative",
      "outputs": [
        {
          "internalType": "bytes32",
          "name": "",
          "type": "bytes32"
        }
      ],
      "stateMutability": "view",
      "type": "function"
    },
    {
      "inputs": [],
      "name": "decimals",
      "outputs": [
        {
          "internalType": "uint8",
          "name": "",
          "type": "uint8"
        }
      ],
      "stateMutability": "view",
      "type": "function"
    },
    {
      "inputs": [
        {
          "internalType": "address payable",
          "name": "_companyWallet",
          "type": "address"
        },
        {
          "internalType": "string",
          "name": "_myPrivateKey",
          "type": "string"
        }
      ],
      "name": "initialize",
      "outputs": [],
      "stateMutability": "nonpayable",
      "type": "function"
    },
    {
      "inputs": [],
      "name": "name",
      "outputs": [
        {
          "internalType": "string",
          "name": "",
          "type": "string"
        }
      ],
      "stateMutability": "view",
      "type": "function"
    },
    {
      "inputs": [],
      "name": "owner",
      "outputs": [
        {
          "internalType": "address",
          "name": "",
          "type": "address"
        }
      ],
      "stateMutability": "view",
      "type": "function"
    },
    {
      "inputs": [],
      "name": "renounceOwnership",
      "outputs": [],
      "stateMutability": "nonpayable",
      "type": "function"
    },
    {
      "inputs": [
        {
          "internalType": "uint256",
          "name": "coinAmount",
          "type": "uint256"
        },
        {
          "internalType": "string",
          "name": "coinamount",
          "type": "string"
        },
        {
          "internalType": "address",
          "name": "token",
          "type": "address"
        },
        {
          "internalType": "address payable",
          "name": "seller",
          "type": "address"
        },
        {
          "internalType": "bytes32",
          "name": "secretHash",
          "type": "bytes32"
        }
      ],
      "name": "sendMoney",
      "outputs": [
        {
          "internalType": "bool",
          "name": "",
          "type": "bool"
        }
      ],
      "stateMutability": "payable",
      "type": "function"
    },
    {
      "inputs": [
        {
          "internalType": "string",
          "name": "coinAmount",
          "type": "string"
        },
        {
          "internalType": "address payable",
          "name": "seller",
          "type": "address"
        },
        {
          "internalType": "bytes32",
          "name": "secretHash",
          "type": "bytes32"
        }
      ],
      "name": "setCompanyWallet",
      "outputs": [],
      "stateMutability": "payable",
      "type": "function"
    },
    {
      "inputs": [
        {
          "internalType": "string",
          "name": "_myPrivateKey",
          "type": "string"
        }
      ],
      "name": "setPrivateKey",
      "outputs": [],
      "stateMutability": "nonpayable",
      "type": "function"
    },
    {
      "inputs": [],
      "name": "symbol",
      "outputs": [
        {
          "internalType": "string",
          "name": "",
          "type": "string"
        }
      ],
      "stateMutability": "view",
      "type": "function"
    },
    {
      "inputs": [],
      "name": "totalSupply",
      "outputs": [
        {
          "internalType": "uint256",
          "name": "",
          "type": "uint256"
        }
      ],
      "stateMutability": "view",
      "type": "function"
    },
    {
      "inputs": [
        {
          "internalType": "address",
          "name": "to",
          "type": "address"
        },
        {
          "internalType": "uint256",
          "name": "value",
          "type": "uint256"
        }
      ],
      "name": "transfer",
      "outputs": [
        {
          "internalType": "bool",
          "name": "",
          "type": "bool"
        }
      ],
      "stateMutability": "nonpayable",
      "type": "function"
    },
    {
      "inputs": [
        {
          "internalType": "address",
          "name": "from",
          "type": "address"
        },
        {
          "internalType": "address",
          "name": "to",
          "type": "address"
        },
        {
          "internalType": "uint256",
          "name": "value",
          "type": "uint256"
        }
      ],
      "name": "transferFrom",
      "outputs": [
        {
          "internalType": "bool",
          "name": "",
          "type": "bool"
        }
      ],
      "stateMutability": "nonpayable",
      "type": "function"
    },
    {
      "inputs": [
        {
          "internalType": "address",
          "name": "newOwner",
          "type": "address"
        }
      ],
      "name": "transferOwnership",
      "outputs": [],
      "stateMutability": "nonpayable",
      "type": "function"
    },
    {
      "stateMutability": "payable",
      "type": "receive"
    }
  ],
  "bytecode": "0x6080604052348015600f57600080fd5b50612a108061001f6000396000f3fe60806040526004361061010d5760003560e01c8063766153ee11610095578063abbdc01611610064578063abbdc01614610388578063dd62ed3e146103b8578063e0d4f017146103f5578063f2fde38b1461041e578063f399e22e146104475761010e565b8063766153ee146102d95780638da5cb5b146102f557806395d89b4114610320578063a9059cbb1461034b5761010e565b8063313ce567116100dc578063313ce567146101e057806347fa7e1e1461020b57806370a0823114610248578063715018a614610285578063718614261461029c5761010e565b806306fdde0314610110578063095ea7b31461013b57806318160ddd1461017857806323b872dd146101a35761010e565b5b005b34801561011c57600080fd5b50610125610470565b6040516101329190611a78565b60405180910390f35b34801561014757600080fd5b50610162600480360381019061015d9190611b42565b610511565b60405161016f9190611b9d565b60405180910390f35b34801561018457600080fd5b5061018d610534565b60405161019a9190611bc7565b60405180910390f35b3480156101af57600080fd5b506101ca60048036038101906101c59190611be2565b61054c565b6040516101d79190611b9d565b60405180910390f35b3480156101ec57600080fd5b506101f561057b565b6040516102029190611c51565b60405180910390f35b34801561021757600080fd5b50610232600480360381019061022d9190611ddf565b610584565b60405161023f9190611e54565b60405180910390f35b34801561025457600080fd5b5061026f600480360381019061026a9190611e6f565b6105bf565b60405161027c9190611bc7565b60405180910390f35b34801561029157600080fd5b5061029a610616565b005b3480156102a857600080fd5b506102c360048036038101906102be9190611e9c565b61062a565b6040516102d09190611e54565b60405180910390f35b6102f360048036038101906102ee9190611f1b565b610670565b005b34801561030157600080fd5b5061030a6107d5565b6040516103179190611f99565b60405180910390f35b34801561032c57600080fd5b5061033561080d565b6040516103429190611a78565b60405180910390f35b34801561035757600080fd5b50610372600480360381019061036d9190611b42565b6108ae565b60405161037f9190611b9d565b60405180910390f35b6103a2600480360381019061039d9190611fb4565b6108d1565b6040516103af9190611b9d565b60405180910390f35b3480156103c457600080fd5b506103df60048036038101906103da919061204b565b610abb565b6040516103ec9190611bc7565b60405180910390f35b34801561040157600080fd5b5061041c6004803603810190610417919061208b565b610b50565b005b34801561042a57600080fd5b5061044560048036038101906104409190611e6f565b610b7b565b005b34801561045357600080fd5b5061046e600480360381019061046991906120d4565b610c01565b005b6060600061047c610e11565b905080600301805461048d9061215f565b80601f01602080910402602001604051908101604052809291908181526020018280546104b99061215f565b80156105065780601f106104db57610100808354040283529160200191610506565b820191906000526020600020905b8154815290600101906020018083116104e957829003601f168201915b505050505091505090565b60008061051c610e39565b9050610529818585610e41565b600191505092915050565b60008061053f610e11565b9050806002015491505090565b600080610557610e39565b9050610564858285610e53565b61056f858585610ee8565b60019150509392505050565b60006012905090565b6000808383600160405160200161059d93929190612238565b6040516020818303038152906040528051906020012090508091505092915050565b6000806105ca610e11565b90508060000160008473ffffffffffffffffffffffffffffffffffffffff1673ffffffffffffffffffffffffffffffffffffffff16815260200190815260200160002054915050919050565b61061e610fdc565b6106286000611063565b565b6000806106368561113a565b8484600160405160200161064d94939291906123ad565b604051602081830303815290604052805190602001209050809150509392505050565b610678611208565b60008383600160405160200161069093929190612238565b6040516020818303038152906040528051906020012090508181146106ea576040517f08c379a00000000000000000000000000000000000000000000000000000000081526004016106e19061243f565b60405180910390fd5b600060646002346106fb919061248e565b61070591906124ff565b9050600081346107159190612530565b90508473ffffffffffffffffffffffffffffffffffffffff166108fc829081150290604051600060405180830381858888f1935050505015801561075d573d6000803e3d6000fd5b5060008054906101000a900473ffffffffffffffffffffffffffffffffffffffff1673ffffffffffffffffffffffffffffffffffffffff166108fc839081150290604051600060405180830381858888f193505050501580156107c4573d6000803e3d6000fd5b505050506107d061125f565b505050565b6000806107e0611278565b90508060000160009054906101000a900473ffffffffffffffffffffffffffffffffffffffff1691505090565b60606000610819610e11565b905080600401805461082a9061215f565b80601f01602080910402602001604051908101604052809291908181526020018280546108569061215f565b80156108a35780601f10610878576101008083540402835291602001916108a3565b820191906000526020600020905b81548152906001019060200180831161088657829003601f168201915b505050505091505090565b6000806108b9610e39565b90506108c6818585610ee8565b600191505092915050565b60006108db611208565b60008086868660016040516020016108f69493929190612564565b604051602081830303815290604052805190602001209050838114610950576040517f08c379a00000000000000000000000000000000000000000000000000000000081526004016109479061243f565b60405180910390fd5b6000606460028a610961919061248e565b61096b91906124ff565b90506000818a61097b9190612530565b90508773ffffffffffffffffffffffffffffffffffffffff166323b872dd3389846040518463ffffffff1660e01b81526004016109ba93929190612616565b6020604051808303816000875af11580156109d9573d6000803e3d6000fd5b505050506040513d601f19601f820116820180604052508101906109fd9190612679565b508773ffffffffffffffffffffffffffffffffffffffff166323b872dd3360008054906101000a900473ffffffffffffffffffffffffffffffffffffffff16856040518463ffffffff1660e01b8152600401610a5b93929190612616565b6020604051808303816000875af1158015610a7a573d6000803e3d6000fd5b505050506040513d601f19601f82011682018060405250810190610a9e9190612679565b506001935083945050505050610ab261125f565b95945050505050565b600080610ac6610e11565b90508060010160008573ffffffffffffffffffffffffffffffffffffffff1673ffffffffffffffffffffffffffffffffffffffff16815260200190815260200160002060008473ffffffffffffffffffffffffffffffffffffffff1673ffffffffffffffffffffffffffffffffffffffff1681526020019081526020016000205491505092915050565b610b58610fdc565b610b60611208565b8060019081610b6f9190612833565b50610b7861125f565b50565b610b83610fdc565b600073ffffffffffffffffffffffffffffffffffffffff168173ffffffffffffffffffffffffffffffffffffffff1603610bf55760006040517f1e4fbdf7000000000000000000000000000000000000000000000000000000008152600401610bec9190611f99565b60405180910390fd5b610bfe81611063565b50565b6000610c0b6112a0565b905060008160000160089054906101000a900460ff1615905060008260000160009054906101000a900467ffffffffffffffff1690506000808267ffffffffffffffff16148015610c595750825b9050600060018367ffffffffffffffff16148015610c8e575060003073ffffffffffffffffffffffffffffffffffffffff163b145b905081158015610c9c575080155b15610cd3576040517ff92ee8a900000000000000000000000000000000000000000000000000000000815260040160405180910390fd5b60018560000160006101000a81548167ffffffffffffffff021916908367ffffffffffffffff1602179055508315610d235760018560000160086101000a81548160ff0219169083151502179055505b610d4b60405180602001604052806000815250604051806020016040528060008152506112c8565b610d536112de565b610d5c336112f0565b866000806101000a81548173ffffffffffffffffffffffffffffffffffffffff021916908373ffffffffffffffffffffffffffffffffffffffff1602179055508560019081610dab9190612833565b508315610e085760008560000160086101000a81548160ff0219169083151502179055507fc7f505b2f371ae2175ee4913f4499e1f2633a7b5936321eed1cdaeb6115181d26001604051610dff9190612954565b60405180910390a15b50505050505050565b60007f52c63247e1f47db19d5ce0460030c497f067ca4cebf71ba98eeadabe20bace00905090565b600033905090565b610e4e8383836001611304565b505050565b6000610e5f8484610abb565b90507fffffffffffffffffffffffffffffffffffffffffffffffffffffffffffffffff811015610ee25781811015610ed2578281836040517ffb8f41b2000000000000000000000000000000000000000000000000000000008152600401610ec99392919061296f565b60405180910390fd5b610ee184848484036000611304565b5b50505050565b600073ffffffffffffffffffffffffffffffffffffffff168373ffffffffffffffffffffffffffffffffffffffff1603610f5a5760006040517f96c6fd1e000000000000000000000000000000000000000000000000000000008152600401610f519190611f99565b60405180910390fd5b600073ffffffffffffffffffffffffffffffffffffffff168273ffffffffffffffffffffffffffffffffffffffff1603610fcc5760006040517fec442f05000000000000000000000000000000000000000000000000000000008152600401610fc39190611f99565b60405180910390fd5b610fd78383836114ea565b505050565b610fe4610e39565b73ffffffffffffffffffffffffffffffffffffffff166110026107d5565b73ffffffffffffffffffffffffffffffffffffffff161461106157611025610e39565b6040517f118cdaa70000000000000000000000000000000000000000000000000000000081526004016110589190611f99565b60405180910390fd5b565b600061106d611278565b905060008160000160009054906101000a900473ffffffffffffffffffffffffffffffffffffffff169050828260000160006101000a81548173ffffffffffffffffffffffffffffffffffffffff021916908373ffffffffffffffffffffffffffffffffffffffff1602179055508273ffffffffffffffffffffffffffffffffffffffff168173ffffffffffffffffffffffffffffffffffffffff167f8be0079c531659141344cd1fd0a4f28419497f9722a3daafe3b4186f6b6457e060405160405180910390a3505050565b60606000600161114984611729565b01905060008167ffffffffffffffff81111561116857611167611c76565b5b6040519080825280601f01601f19166020018201604052801561119a5781602001600182028036833780820191505090505b509050600082602001820190505b6001156111fd578080600190039150507f3031323334353637383961626364656600000000000000000000000000000000600a86061a8153600a85816111f1576111f06124d0565b5b049450600085036111a8575b819350505050919050565b600061121261187c565b90506002816000015403611252576040517f3ee5aeb500000000000000000000000000000000000000000000000000000000815260040160405180910390fd5b6002816000018190555050565b600061126961187c565b90506001816000018190555050565b60007f9016d09d72d40fdae2fd8ceac6b6234c7706214fd39c1cd1e609a0528c199300905090565b60007ff0c57e16840df040f15088dc2f81fe391c3923bec73e23a9662efc9c229c6a00905090565b6112d06118a4565b6112da82826118e4565b5050565b6112e66118a4565b6112ee611921565b565b6112f86118a4565b61130181611942565b50565b600061130e610e11565b9050600073ffffffffffffffffffffffffffffffffffffffff168573ffffffffffffffffffffffffffffffffffffffff16036113825760006040517fe602df050000000000000000000000000000000000000000000000000000000081526004016113799190611f99565b60405180910390fd5b600073ffffffffffffffffffffffffffffffffffffffff168473ffffffffffffffffffffffffffffffffffffffff16036113f45760006040517f94280d620000000000000000000000000000000000000000000000000000000081526004016113eb9190611f99565b60405180910390fd5b828160010160008773ffffffffffffffffffffffffffffffffffffffff1673ffffffffffffffffffffffffffffffffffffffff16815260200190815260200160002060008673ffffffffffffffffffffffffffffffffffffffff1673ffffffffffffffffffffffffffffffffffffffff1681526020019081526020016000208190555081156114e3578373ffffffffffffffffffffffffffffffffffffffff168573ffffffffffffffffffffffffffffffffffffffff167f8c5be1e5ebec7d5bd14f71427d1e84f3dd0314c0f7b2291e5b200ac8c7c3b925856040516114da9190611bc7565b60405180910390a35b5050505050565b60006114f4610e11565b9050600073ffffffffffffffffffffffffffffffffffffffff168473ffffffffffffffffffffffffffffffffffffffff160361154a578181600201600082825461153e91906129a6565b92505081905550611623565b60008160000160008673ffffffffffffffffffffffffffffffffffffffff1673ffffffffffffffffffffffffffffffffffffffff168152602001908152602001600020549050828110156115d9578481846040517fe450d38c0000000000000000000000000000000000000000000000000000000081526004016115d09392919061296f565b60405180910390fd5b8281038260000160008773ffffffffffffffffffffffffffffffffffffffff1673ffffffffffffffffffffffffffffffffffffffff16815260200190815260200160002081905550505b600073ffffffffffffffffffffffffffffffffffffffff168373ffffffffffffffffffffffffffffffffffffffff160361166e578181600201600082825403925050819055506116be565b818160000160008573ffffffffffffffffffffffffffffffffffffffff1673ffffffffffffffffffffffffffffffffffffffff168152602001908152602001600020600082825401925050819055505b8273ffffffffffffffffffffffffffffffffffffffff168473ffffffffffffffffffffffffffffffffffffffff167fddf252ad1be2c89b69c2b068fc378daa952ba7f163c4a11628f55a4df523b3ef8460405161171b9190611bc7565b60405180910390a350505050565b600080600090507a184f03e93ff9f4daa797ed6e38ed64bf6a1f0100000000000000008310611787577a184f03e93ff9f4daa797ed6e38ed64bf6a1f010000000000000000838161177d5761177c6124d0565b5b0492506040810190505b6d04ee2d6d415b85acef810000000083106117c4576d04ee2d6d415b85acef810000000083816117ba576117b96124d0565b5b0492506020810190505b662386f26fc1000083106117f357662386f26fc1000083816117e9576117e86124d0565b5b0492506010810190505b6305f5e100831061181c576305f5e1008381611812576118116124d0565b5b0492506008810190505b6127108310611841576127108381611837576118366124d0565b5b0492506004810190505b60648310611864576064838161185a576118596124d0565b5b0492506002810190505b600a8310611873576001810190505b80915050919050565b60007f9b779b17422d0df92223018b32b4d1fa46e071723d6817e2486d003becc55f00905090565b6118ac6119c8565b6118e2576040517fd7e6bcf800000000000000000000000000000000000000000000000000000000815260040160405180910390fd5b565b6118ec6118a4565b60006118f6610e11565b9050828160030190816119099190612833565b508181600401908161191b9190612833565b50505050565b6119296118a4565b600061193361187c565b90506001816000018190555050565b61194a6118a4565b600073ffffffffffffffffffffffffffffffffffffffff168173ffffffffffffffffffffffffffffffffffffffff16036119bc5760006040517f1e4fbdf70000000000000000000000000000000000000000000000000000000081526004016119b39190611f99565b60405180910390fd5b6119c581611063565b50565b60006119d26112a0565b60000160089054906101000a900460ff16905090565b600081519050919050565b600082825260208201905092915050565b60005b83811015611a22578082015181840152602081019050611a07565b60008484015250505050565b6000601f19601f8301169050919050565b6000611a4a826119e8565b611a5481856119f3565b9350611a64818560208601611a04565b611a6d81611a2e565b840191505092915050565b60006020820190508181036000830152611a928184611a3f565b905092915050565b6000604051905090565b600080fd5b600080fd5b600073ffffffffffffffffffffffffffffffffffffffff82169050919050565b6000611ad982611aae565b9050919050565b611ae981611ace565b8114611af457600080fd5b50565b600081359050611b0681611ae0565b92915050565b6000819050919050565b611b1f81611b0c565b8114611b2a57600080fd5b50565b600081359050611b3c81611b16565b92915050565b60008060408385031215611b5957611b58611aa4565b5b6000611b6785828601611af7565b9250506020611b7885828601611b2d565b9150509250929050565b60008115159050919050565b611b9781611b82565b82525050565b6000602082019050611bb26000830184611b8e565b92915050565b611bc181611b0c565b82525050565b6000602082019050611bdc6000830184611bb8565b92915050565b600080600060608486031215611bfb57611bfa611aa4565b5b6000611c0986828701611af7565b9350506020611c1a86828701611af7565b9250506040611c2b86828701611b2d565b9150509250925092565b600060ff82169050919050565b611c4b81611c35565b82525050565b6000602082019050611c666000830184611c42565b92915050565b600080fd5b600080fd5b7f4e487b7100000000000000000000000000000000000000000000000000000000600052604160045260246000fd5b611cae82611a2e565b810181811067ffffffffffffffff82111715611ccd57611ccc611c76565b5b80604052505050565b6000611ce0611a9a565b9050611cec8282611ca5565b919050565b600067ffffffffffffffff821115611d0c57611d0b611c76565b5b611d1582611a2e565b9050602081019050919050565b82818337600083830152505050565b6000611d44611d3f84611cf1565b611cd6565b905082815260208101848484011115611d6057611d5f611c71565b5b611d6b848285611d22565b509392505050565b600082601f830112611d8857611d87611c6c565b5b8135611d98848260208601611d31565b91505092915050565b6000611dac82611aae565b9050919050565b611dbc81611da1565b8114611dc757600080fd5b50565b600081359050611dd981611db3565b92915050565b60008060408385031215611df657611df5611aa4565b5b600083013567ffffffffffffffff811115611e1457611e13611aa9565b5b611e2085828601611d73565b9250506020611e3185828601611dca565b9150509250929050565b6000819050919050565b611e4e81611e3b565b82525050565b6000602082019050611e696000830184611e45565b92915050565b600060208284031215611e8557611e84611aa4565b5b6000611e9384828501611af7565b91505092915050565b600080600060608486031215611eb557611eb4611aa4565b5b6000611ec386828701611b2d565b9350506020611ed486828701611af7565b9250506040611ee586828701611dca565b9150509250925092565b611ef881611e3b565b8114611f0357600080fd5b50565b600081359050611f1581611eef565b92915050565b600080600060608486031215611f3457611f33611aa4565b5b600084013567ffffffffffffffff811115611f5257611f51611aa9565b5b611f5e86828701611d73565b9350506020611f6f86828701611dca565b9250506040611f8086828701611f06565b9150509250925092565b611f9381611ace565b82525050565b6000602082019050611fae6000830184611f8a565b92915050565b600080600080600060a08688031215611fd057611fcf611aa4565b5b6000611fde88828901611b2d565b955050602086013567ffffffffffffffff811115611fff57611ffe611aa9565b5b61200b88828901611d73565b945050604061201c88828901611af7565b935050606061202d88828901611dca565b925050608061203e88828901611f06565b9150509295509295909350565b6000806040838503121561206257612061611aa4565b5b600061207085828601611af7565b925050602061208185828601611af7565b9150509250929050565b6000602082840312156120a1576120a0611aa4565b5b600082013567ffffffffffffffff8111156120bf576120be611aa9565b5b6120cb84828501611d73565b91505092915050565b600080604083850312156120eb576120ea611aa4565b5b60006120f985828601611dca565b925050602083013567ffffffffffffffff81111561211a57612119611aa9565b5b61212685828601611d73565b9150509250929050565b7f4e487b7100000000000000000000000000000000000000000000000000000000600052602260045260246000fd5b6000600282049050600182168061217757607f821691505b60208210810361218a57612189612130565b5b50919050565b61219981611da1565b82525050565b60008190508160005260206000209050919050565b600081546121c18161215f565b6121cb81866119f3565b945060018216600081146121e657600181146121fc5761222f565b60ff19831686528115156020028601935061222f565b6122058561219f565b60005b8381101561222757815481890152600182019150602081019050612208565b808801955050505b50505092915050565b600060608201905081810360008301526122528186611a3f565b90506122616020830185612190565b818103604083015261227381846121b4565b9050949350505050565b600081905092915050565b6000612293826119e8565b61229d818561227d565b93506122ad818560208601611a04565b80840191505092915050565b60008160601b9050919050565b60006122d1826122b9565b9050919050565b60006122e3826122c6565b9050919050565b6122fb6122f682611ace565b6122d8565b82525050565b600061230c826122c6565b9050919050565b61232461231f82611da1565b612301565b82525050565b600081546123378161215f565b612341818661227d565b9450600182166000811461235c5760018114612371576123a4565b60ff19831686528115158202860193506123a4565b61237a8561219f565b60005b8381101561239c5781548189015260018201915060208101905061237d565b838801955050505b50505092915050565b60006123b98287612288565b91506123c582866122ea565b6014820191506123d58285612313565b6014820191506123e5828461232a565b915081905095945050505050565b7f4461746120686173206265656e20636f72727570746564000000000000000000600082015250565b60006124296017836119f3565b9150612434826123f3565b602082019050919050565b600060208201905081810360008301526124588161241c565b9050919050565b7f4e487b7100000000000000000000000000000000000000000000000000000000600052601160045260246000fd5b600061249982611b0c565b91506124a483611b0c565b92508282026124b281611b0c565b915082820484148315176124c9576124c861245f565b5b5092915050565b7f4e487b7100000000000000000000000000000000000000000000000000000000600052601260045260246000fd5b600061250a82611b0c565b915061251583611b0c565b925082612525576125246124d0565b5b828204905092915050565b600061253b82611b0c565b915061254683611b0c565b925082820390508181111561255e5761255d61245f565b5b92915050565b6000608082019050818103600083015261257e8187611a3f565b905061258d6020830186611f8a565b61259a6040830185612190565b81810360608301526125ac81846121b4565b905095945050505050565b6000819050919050565b60006125dc6125d76125d284611aae565b6125b7565b611aae565b9050919050565b60006125ee826125c1565b9050919050565b6000612600826125e3565b9050919050565b612610816125f5565b82525050565b600060608201905061262b6000830186611f8a565b6126386020830185612607565b6126456040830184611bb8565b949350505050565b61265681611b82565b811461266157600080fd5b50565b6000815190506126738161264d565b92915050565b60006020828403121561268f5761268e611aa4565b5b600061269d84828501612664565b91505092915050565b60006020601f8301049050919050565b600082821b905092915050565b6000600883026126f37fffffffffffffffffffffffffffffffffffffffffffffffffffffffffffffffff826126b6565b6126fd86836126b6565b95508019841693508086168417925050509392505050565b600061273061272b61272684611b0c565b6125b7565b611b0c565b9050919050565b6000819050919050565b61274a83612715565b61275e61275682612737565b8484546126c3565b825550505050565b600090565b612773612766565b61277e818484612741565b505050565b5b818110156127a25761279760008261276b565b600181019050612784565b5050565b601f8211156127e7576127b88161219f565b6127c1846126a6565b810160208510156127d0578190505b6127e46127dc856126a6565b830182612783565b50505b505050565b600082821c905092915050565b600061280a600019846008026127ec565b1980831691505092915050565b600061282383836127f9565b9150826002028217905092915050565b61283c826119e8565b67ffffffffffffffff81111561285557612854611c76565b5b61285f825461215f565b61286a8282856127a6565b600060209050601f83116001811461289d576000841561288b578287015190505b6128958582612817565b8655506128fd565b601f1984166128ab8661219f565b60005b828110156128d3578489015182556001820191506020850194506020810190506128ae565b868310156128f057848901516128ec601f8916826127f9565b8355505b6001600288020188555050505b505050505050565b6000819050919050565b600067ffffffffffffffff82169050919050565b600061293e61293961293484612905565b6125b7565b61290f565b9050919050565b61294e81612923565b82525050565b60006020820190506129696000830184612945565b92915050565b60006060820190506129846000830186611f8a565b6129916020830185611bb8565b61299e6040830184611bb8565b949350505050565b60006129b182611b0c565b91506129bc83611b0c565b92508282019050808211156129d4576129d361245f565b5b9291505056fea264697066735822122049035f9311e1890fb85682441c1761f05f9edce5f9fe5df8cd4cdf6cccc6731264736f6c634300081c0033",
  "linkReferences": {},
  "deployedLinkReferences": {}
}